{
  "contractName": "FlightSuretyApp",
  "abi": [
    {
      "constant": true,
      "inputs": [],
      "name": "AIRLINE_NUM_BEFORE_CONS",
      "outputs": [
        {
          "name": "",
          "type": "uint256"
        }
      ],
      "payable": false,
      "stateMutability": "view",
      "type": "function"
    },
    {
      "constant": true,
      "inputs": [],
      "name": "REGISTRATION_FEE_AIRLINES",
      "outputs": [
        {
          "name": "",
          "type": "uint256"
        }
      ],
      "payable": false,
      "stateMutability": "view",
      "type": "function"
    },
    {
      "constant": true,
      "inputs": [],
      "name": "REGISTRATION_FEE",
      "outputs": [
        {
          "name": "",
          "type": "uint256"
        }
      ],
      "payable": false,
      "stateMutability": "view",
      "type": "function"
    },
    {
      "constant": true,
      "inputs": [],
      "name": "MAX_INSURANCE_PASSENGER",
      "outputs": [
        {
          "name": "",
          "type": "uint256"
        }
      ],
      "payable": false,
      "stateMutability": "view",
      "type": "function"
    },
    {
      "inputs": [
        {
          "name": "dataContract",
          "type": "address"
        }
      ],
      "payable": false,
      "stateMutability": "nonpayable",
      "type": "constructor"
    },
    {
      "anonymous": false,
      "inputs": [
        {
          "indexed": false,
          "name": "_airline",
          "type": "address"
        }
      ],
      "name": "AirlineRegistered",
      "type": "event"
    },
    {
      "anonymous": false,
      "inputs": [
        {
          "indexed": false,
          "name": "_airline",
          "type": "address"
        }
      ],
      "name": "AirlineFunded",
      "type": "event"
    },
    {
      "anonymous": false,
      "inputs": [
        {
          "indexed": false,
          "name": "_flightNumber",
          "type": "string"
        }
      ],
      "name": "InsureesCredited",
      "type": "event"
    },
    {
      "anonymous": false,
      "inputs": [],
      "name": "PassengerInsured",
      "type": "event"
    },
    {
      "anonymous": false,
      "inputs": [
        {
          "indexed": false,
          "name": "_flight",
          "type": "string"
        }
      ],
      "name": "FlightRegistered",
      "type": "event"
    },
    {
      "anonymous": false,
      "inputs": [
        {
          "indexed": false,
          "name": "airline",
          "type": "address"
        },
        {
          "indexed": false,
          "name": "flight",
          "type": "string"
        },
        {
          "indexed": false,
          "name": "timestamp",
          "type": "uint256"
        },
        {
          "indexed": false,
          "name": "status",
          "type": "uint8"
        }
      ],
      "name": "FlightStatusInfo",
      "type": "event"
    },
    {
      "anonymous": false,
      "inputs": [
        {
          "indexed": false,
          "name": "airline",
          "type": "address"
        },
        {
          "indexed": false,
          "name": "flight",
          "type": "string"
        },
        {
          "indexed": false,
          "name": "timestamp",
          "type": "uint256"
        },
        {
          "indexed": false,
          "name": "status",
          "type": "uint8"
        }
      ],
      "name": "OracleReport",
      "type": "event"
    },
    {
      "anonymous": false,
      "inputs": [
        {
          "indexed": false,
          "name": "index",
          "type": "uint8"
        },
        {
          "indexed": false,
          "name": "airline",
          "type": "address"
        },
        {
          "indexed": false,
          "name": "flight",
          "type": "string"
        },
        {
          "indexed": false,
          "name": "timestamp",
          "type": "uint256"
        }
      ],
      "name": "OracleRequest",
      "type": "event"
    },
    {
      "constant": true,
      "inputs": [],
      "name": "isOperational",
      "outputs": [
        {
          "name": "",
          "type": "bool"
        }
      ],
      "payable": false,
      "stateMutability": "view",
      "type": "function"
    },
    {
      "constant": true,
      "inputs": [
        {
          "name": "airline",
          "type": "address"
        },
        {
          "name": "flight",
          "type": "string"
        },
        {
          "name": "timestamp",
          "type": "uint256"
        }
      ],
      "name": "isFlightRegistered",
      "outputs": [
        {
          "name": "",
          "type": "bool"
        }
      ],
      "payable": false,
      "stateMutability": "view",
      "type": "function"
    },
    {
      "constant": false,
      "inputs": [
        {
          "name": "mode",
          "type": "bool"
        }
      ],
      "name": "setOperatingStatus",
      "outputs": [],
      "payable": false,
      "stateMutability": "nonpayable",
      "type": "function"
    },
    {
      "constant": false,
      "inputs": [
        {
          "name": "_airline",
          "type": "address"
        }
      ],
      "name": "registerAirline",
      "outputs": [],
      "payable": false,
      "stateMutability": "nonpayable",
      "type": "function"
    },
    {
      "constant": false,
      "inputs": [
        {
          "name": "airline",
          "type": "address"
        }
      ],
      "name": "fund",
      "outputs": [],
      "payable": true,
      "stateMutability": "payable",
      "type": "function"
    },
    {
      "constant": false,
      "inputs": [
        {
          "name": "time",
          "type": "uint256"
        },
        {
          "name": "_airline",
          "type": "address"
        },
        {
          "name": "flightNumber",
          "type": "string"
        }
      ],
      "name": "registerFlight",
      "outputs": [],
      "payable": false,
      "stateMutability": "nonpayable",
      "type": "function"
    },
    {
      "constant": false,
      "inputs": [
        {
          "name": "flight",
          "type": "string"
        },
        {
          "name": "time",
          "type": "uint256"
        },
        {
          "name": "airline",
          "type": "address"
        },
        {
          "name": "passenger",
          "type": "address"
        }
      ],
      "name": "insurePassenger",
      "outputs": [],
      "payable": true,
      "stateMutability": "payable",
      "type": "function"
    },
    {
      "constant": false,
      "inputs": [],
      "name": "withdrawPayout",
      "outputs": [],
      "payable": true,
      "stateMutability": "payable",
      "type": "function"
    },
    {
      "constant": false,
      "inputs": [
        {
          "name": "passenger",
          "type": "address"
        },
        {
          "name": "flight",
          "type": "string"
        }
      ],
      "name": "getFlightsInsured",
      "outputs": [
        {
          "name": "amount",
          "type": "uint256"
        }
      ],
      "payable": false,
      "stateMutability": "nonpayable",
      "type": "function"
    },
    {
      "constant": false,
      "inputs": [
        {
          "name": "flight",
          "type": "string"
        }
      ],
      "name": "getFlightAmountInsured",
      "outputs": [
        {
          "name": "amount",
          "type": "uint256"
        }
      ],
      "payable": false,
      "stateMutability": "nonpayable",
      "type": "function"
    },
    {
      "constant": false,
      "inputs": [
        {
          "name": "airline",
          "type": "address"
        },
        {
          "name": "flight",
          "type": "string"
        },
        {
          "name": "timestamp",
          "type": "uint256"
        }
      ],
      "name": "fetchFlightStatus",
      "outputs": [],
      "payable": false,
      "stateMutability": "nonpayable",
      "type": "function"
    },
    {
      "constant": false,
      "inputs": [],
      "name": "registerOracle",
      "outputs": [],
      "payable": true,
      "stateMutability": "payable",
      "type": "function"
    },
    {
      "constant": true,
      "inputs": [],
      "name": "getMyIndexes",
      "outputs": [
        {
          "name": "",
          "type": "uint8[3]"
        }
      ],
      "payable": false,
      "stateMutability": "view",
      "type": "function"
    },
    {
      "constant": false,
      "inputs": [
        {
          "name": "index",
          "type": "uint8"
        },
        {
          "name": "airline",
          "type": "address"
        },
        {
          "name": "flight",
          "type": "string"
        },
        {
          "name": "timestamp",
          "type": "uint256"
        },
        {
          "name": "statusCode",
          "type": "uint8"
        }
      ],
      "name": "submitOracleResponse",
      "outputs": [],
      "payable": false,
      "stateMutability": "nonpayable",
      "type": "function"
    }
  ],
  "bytecode": "0x608060405260016000806101000a81548160ff02191690831515021790555060006040519080825280602002602001820160405280156200004f5781602001602082028038833980820191505090505b50600190805190602001906200006792919062000188565b506000604051908082528060200260200182016040528015620000995781602001602082028038833980820191505090505b5060049080519060200190620000b192919062000188565b506000600660006101000a81548160ff021916908360ff160217905550348015620000db57600080fd5b50604051602080620034278339810180604052810190808051906020019092919050505033600260006101000a81548173ffffffffffffffffffffffffffffffffffffffff021916908373ffffffffffffffffffffffffffffffffffffffff16021790555080600360006101000a81548173ffffffffffffffffffffffffffffffffffffffff021916908373ffffffffffffffffffffffffffffffffffffffff160217905550506200025d565b82805482825590600052602060002090810192821562000204579160200282015b82811115620002035782518260006101000a81548173ffffffffffffffffffffffffffffffffffffffff021916908373ffffffffffffffffffffffffffffffffffffffff16021790555091602001919060010190620001a9565b5b50905062000213919062000217565b5090565b6200025a91905b808211156200025657600081816101000a81549073ffffffffffffffffffffffffffffffffffffffff0219169055506001016200021e565b5090565b90565b6131ba806200026d6000396000f3006080604052600436106100fc576000357c0100000000000000000000000000000000000000000000000000000000900463ffffffff16806306c0e84114610101578063110466ed1461010b5780631a8cab831461013a5780632302440814610165578063241a53cb1461019b57806327c925ee14610246578063339d2590146102be5780635c828bfb146102c85780635f1cc0e6146102f357806364b4f7511461034657806374cf8a841461037157806385bd6591146103e0578063bdfd98771461040b578063c10f27001461044e578063cd02ac68146104cd578063cd905dff1461051c578063f7f813d41461054b578063f83f11c0146105b0575b600080fd5b610109610615565b005b34801561011757600080fd5b506101386004803603810190808035151590602001909291905050506106f4565b005b34801561014657600080fd5b5061014f610bcc565b6040518082815260200191505060405180910390f35b610199600480360381019080803573ffffffffffffffffffffffffffffffffffffffff169060200190929190505050610bd1565b005b3480156101a757600080fd5b5061022c600480360381019080803573ffffffffffffffffffffffffffffffffffffffff169060200190929190803590602001908201803590602001908080601f016020809104026020016040519081016040528093929190818152602001838380828437820191505050505050919291929080359060200190929190505050610e9e565b604051808215151515815260200191505060405180910390f35b6102bc60048036038101908080359060200190820180359060200191909192939192939080359060200190929190803573ffffffffffffffffffffffffffffffffffffffff169060200190929190803573ffffffffffffffffffffffffffffffffffffffff169060200190929190505050610ee4565b005b6102c66111a1565b005b3480156102d457600080fd5b506102dd6112c9565b6040518082815260200191505060405180910390f35b3480156102ff57600080fd5b506103086112d5565b6040518082600360200280838360005b83811015610333578082015181840152602081019050610318565b5050505090500191505060405180910390f35b34801561035257600080fd5b5061035b61144a565b6040518082815260200191505060405180910390f35b34801561037d57600080fd5b506103ca600480360381019080803573ffffffffffffffffffffffffffffffffffffffff169060200190929190803590602001908201803590602001919091929391929390505050611456565b6040518082815260200191505060405180910390f35b3480156103ec57600080fd5b506103f561157b565b6040518082815260200191505060405180910390f35b34801561041757600080fd5b5061044c600480360381019080803573ffffffffffffffffffffffffffffffffffffffff169060200190929190505050611587565b005b34801561045a57600080fd5b506104cb600480360381019080803560ff169060200190929190803573ffffffffffffffffffffffffffffffffffffffff16906020019092919080359060200190820180359060200191909192939192939080359060200190929190803560ff169060200190929190505050611c43565b005b3480156104d957600080fd5b5061050660048036038101908080359060200190820180359060200191909192939192939050505061225a565b6040518082815260200191505060405180910390f35b34801561052857600080fd5b5061053161234a565b604051808215151515815260200191505060405180910390f35b34801561055757600080fd5b506105ae60048036038101908080359060200190929190803573ffffffffffffffffffffffffffffffffffffffff169060200190929190803590602001908201803590602001919091929391929390505050612360565b005b3480156105bc57600080fd5b50610613600480360381019080803573ffffffffffffffffffffffffffffffffffffffff169060200190929190803590602001908201803590602001919091929391929390803590602001909291905050506126c4565b005b600360009054906101000a900473ffffffffffffffffffffffffffffffffffffffff1673ffffffffffffffffffffffffffffffffffffffff1663f3fef3a333346040518363ffffffff167c0100000000000000000000000000000000000000000000000000000000028152600401808373ffffffffffffffffffffffffffffffffffffffff1673ffffffffffffffffffffffffffffffffffffffff16815260200182815260200192505050600060405180830381600087803b1580156106da57600080fd5b505af11580156106ee573d6000803e3d6000fd5b50505050565b6000806000809054906101000a900460ff1615156107a0576040517f08c379a00000000000000000000000000000000000000000000000000000000081526004018080602001828103825260258152602001807f436f6e74726163742069732063757272656e746c79206e6f74206f706572617481526020017f696f6e616c00000000000000000000000000000000000000000000000000000081525060400191505060405180910390fd5b6000809054906101000a900460ff16151583151514151515610850576040517f08c379a000000000000000000000000000000000000000000000000000000000815260040180806020018281038252602d8152602001807f4e6577206d6f6465206d75737420626520646966666572656e742066726f6d2081526020017f6578697374696e67206d6f64650000000000000000000000000000000000000081525060400191505060405180910390fd5b600360009054906101000a900473ffffffffffffffffffffffffffffffffffffffff1673ffffffffffffffffffffffffffffffffffffffff16635689b249336040518263ffffffff167c0100000000000000000000000000000000000000000000000000000000028152600401808273ffffffffffffffffffffffffffffffffffffffff1673ffffffffffffffffffffffffffffffffffffffff168152602001915050602060405180830381600087803b15801561090d57600080fd5b505af1158015610921573d6000803e3d6000fd5b505050506040513d602081101561093757600080fd5b810190808051906020019092919050505015156109bc576040517f08c379a000000000000000000000000000000000000000000000000000000000815260040180806020018281038252601f8152602001807f43616c6c6572206973206e6f7420612066756e646564206169726c696e652e0081525060200191505060405180910390fd5b60009150600090505b600180549050811015610a55573373ffffffffffffffffffffffffffffffffffffffff166001828154811015156109f857fe5b9060005260206000200160009054906101000a900473ffffffffffffffffffffffffffffffffffffffff1673ffffffffffffffffffffffffffffffffffffffff161415610a485760019150610a55565b80806001019150506109c5565b81151515610af1576040517f08c379a00000000000000000000000000000000000000000000000000000000081526004018080602001828103825260288152602001807f43616c6c65722068617320616c72656164792063616c6c65642074686973206681526020017f756e6374696f6e2e00000000000000000000000000000000000000000000000081525060400191505060405180910390fd5b60013390806001815401808255809150509060018203906000526020600020016000909192909190916101000a81548173ffffffffffffffffffffffffffffffffffffffff021916908373ffffffffffffffffffffffffffffffffffffffff160217905550506003600180549050101515610bc757826000806101000a81548160ff0219169083151502179055506000604051908082528060200260200182016040528015610baf5781602001602082028038833980820191505090505b5060019080519060200190610bc5929190612f2f565b505b505050565b600481565b6000809054906101000a900460ff161515610c7a576040517f08c379a00000000000000000000000000000000000000000000000000000000081526004018080602001828103825260258152602001807f436f6e74726163742069732063757272656e746c79206e6f74206f706572617481526020017f696f6e616c00000000000000000000000000000000000000000000000000000081525060400191505060405180910390fd5b678ac7230489e8000034141515610d1f576040517f08c379a00000000000000000000000000000000000000000000000000000000081526004018080602001828103825260318152602001807f4e6f7420656e6f75676820457468657220746f2066756e64206169726c696e6581526020017f2e2052657175697265732031302045544800000000000000000000000000000081525060400191505060405180910390fd5b600360009054906101000a900473ffffffffffffffffffffffffffffffffffffffff1673ffffffffffffffffffffffffffffffffffffffff16631d5cc440678ac7230489e8000083336040518463ffffffff167c0100000000000000000000000000000000000000000000000000000000028152600401808481526020018373ffffffffffffffffffffffffffffffffffffffff1673ffffffffffffffffffffffffffffffffffffffff1681526020018273ffffffffffffffffffffffffffffffffffffffff1673ffffffffffffffffffffffffffffffffffffffff1681526020019350505050600060405180830381600087803b158015610e2057600080fd5b505af1158015610e34573d6000803e3d6000fd5b505050507f3c348ba34685212d5d04f432a9e569b642b180df0227a6b0c899050c4acb7af881604051808273ffffffffffffffffffffffffffffffffffffffff1673ffffffffffffffffffffffffffffffffffffffff16815260200191505060405180910390a150565b600080610eac85858561292e565b905060056000826000191660001916815260200190815260200160002060000160009054906101000a900460ff169150509392505050565b6000809054906101000a900460ff161515610f8d576040517f08c379a00000000000000000000000000000000000000000000000000000000081526004018080602001828103825260258152602001807f436f6e74726163742069732063757272656e746c79206e6f74206f706572617481526020017f696f6e616c00000000000000000000000000000000000000000000000000000081525060400191505060405180910390fd5b670de0b6b3a76400003411151515611033576040517f08c379a00000000000000000000000000000000000000000000000000000000081526004018080602001828103825260218152602001807f50617373656e676572732063616e207061792061206d6178206f66203120455481526020017f480000000000000000000000000000000000000000000000000000000000000081525060400191505060405180910390fd5b600360009054906101000a900473ffffffffffffffffffffffffffffffffffffffff1673ffffffffffffffffffffffffffffffffffffffff1663c6a5d72f8686868533346040518763ffffffff167c010000000000000000000000000000000000000000000000000000000002815260040180806020018681526020018573ffffffffffffffffffffffffffffffffffffffff1673ffffffffffffffffffffffffffffffffffffffff1681526020018473ffffffffffffffffffffffffffffffffffffffff1673ffffffffffffffffffffffffffffffffffffffff16815260200183815260200182810382528888828181526020019250808284378201915050975050505050505050600060405180830381600087803b15801561115657600080fd5b505af115801561116a573d6000803e3d6000fd5b505050507f344e0c730ff640331685c4c29b55a809b1596be6a6eb7b8e298fdae0baade96960405160405180910390a15050505050565b6111a9612fb9565b670de0b6b3a76400003410151515611229576040517f08c379a000000000000000000000000000000000000000000000000000000000815260040180806020018281038252601c8152602001807f526567697374726174696f6e206665652069732072657175697265640000000081525060200191505060405180910390fd5b61123233612a53565b9050604080519081016040528060011515815260200182815250600760003373ffffffffffffffffffffffffffffffffffffffff1673ffffffffffffffffffffffffffffffffffffffff16815260200190815260200160002060008201518160000160006101000a81548160ff0219169083151502179055506020820151816001019060036112c2929190612fdc565b5090505050565b678ac7230489e8000081565b6112dd612fb9565b600760003373ffffffffffffffffffffffffffffffffffffffff1673ffffffffffffffffffffffffffffffffffffffff16815260200190815260200160002060000160009054906101000a900460ff1615156113a1576040517f08c379a000000000000000000000000000000000000000000000000000000000815260040180806020018281038252601b8152602001807f4e6f74207265676973746572656420617320616e206f7261636c65000000000081525060200191505060405180910390fd5b600760003373ffffffffffffffffffffffffffffffffffffffff1673ffffffffffffffffffffffffffffffffffffffff168152602001908152602001600020600101600380602002604051908101604052809291908260038015611440576020028201916000905b82829054906101000a900460ff1660ff16815260200190600101906020826000010492830192600103820291508084116114095790505b5050505050905090565b670de0b6b3a764000081565b6000600360009054906101000a900473ffffffffffffffffffffffffffffffffffffffff1673ffffffffffffffffffffffffffffffffffffffff166374cf8a848585856040518463ffffffff167c0100000000000000000000000000000000000000000000000000000000028152600401808473ffffffffffffffffffffffffffffffffffffffff1673ffffffffffffffffffffffffffffffffffffffff1681526020018060200182810382528484828181526020019250808284378201915050945050505050602060405180830381600087803b15801561153757600080fd5b505af115801561154b573d6000803e3d6000fd5b505050506040513d602081101561156157600080fd5b810190808051906020019092919050505090509392505050565b670de0b6b3a764000081565b60008060008060008060008060009054906101000a900460ff16151561163b576040517f08c379a00000000000000000000000000000000000000000000000000000000081526004018080602001828103825260258152602001807f436f6e74726163742069732063757272656e746c79206e6f74206f706572617481526020017f696f6e616c00000000000000000000000000000000000000000000000000000081525060400191505060405180910390fd5b600360009054906101000a900473ffffffffffffffffffffffffffffffffffffffff1673ffffffffffffffffffffffffffffffffffffffff1663b9e5a4436040518163ffffffff167c0100000000000000000000000000000000000000000000000000000000028152600401602060405180830381600087803b1580156116c157600080fd5b505af11580156116d5573d6000803e3d6000fd5b505050506040513d60208110156116eb57600080fd5b810190808051906020019092919050505096506001955060009450600487101515611abf57600360009054906101000a900473ffffffffffffffffffffffffffffffffffffffff1673ffffffffffffffffffffffffffffffffffffffff1663c3c5a547336040518263ffffffff167c0100000000000000000000000000000000000000000000000000000000028152600401808273ffffffffffffffffffffffffffffffffffffffff1673ffffffffffffffffffffffffffffffffffffffff168152602001915050602060405180830381600087803b1580156117cd57600080fd5b505af11580156117e1573d6000803e3d6000fd5b505050506040513d60208110156117f757600080fd5b81019080805190602001909291905050509350600115158415151415156118ac576040517f08c379a00000000000000000000000000000000000000000000000000000000081526004018080602001828103825260228152602001807f43616c6c6572206973206e6f7420612072656769737465726564206169726c6981526020017f6e6500000000000000000000000000000000000000000000000000000000000081525060400191505060405180910390fd5b6000925060009550600091505b600480549050821015611949573373ffffffffffffffffffffffffffffffffffffffff166004838154811015156118ec57fe5b9060005260206000200160009054906101000a900473ffffffffffffffffffffffffffffffffffffffff1673ffffffffffffffffffffffffffffffffffffffff16141561193c5760019250611949565b81806001019250506118b9565b821515156119e5576040517f08c379a00000000000000000000000000000000000000000000000000000000081526004018080602001828103825260288152602001807f43616c6c65722068617320616c72656164792063616c6c65642074686973206681526020017f756e6374696f6e2e00000000000000000000000000000000000000000000000081525060400191505060405180910390fd5b60043390806001815401808255809150509060018203906000526020600020016000909192909190916101000a81548173ffffffffffffffffffffffffffffffffffffffff021916908373ffffffffffffffffffffffffffffffffffffffff160217905550506004805490509450611a67600288612bf990919063ffffffff16565b90508085101515611abe57600195506000604051908082528060200260200182016040528015611aa65781602001602082028038833980820191505090505b5060049080519060200190611abc929190612f2f565b505b5b600115158615151415611c3957600360009054906101000a900473ffffffffffffffffffffffffffffffffffffffff1673ffffffffffffffffffffffffffffffffffffffff1663c7ba501889336040518363ffffffff167c0100000000000000000000000000000000000000000000000000000000028152600401808373ffffffffffffffffffffffffffffffffffffffff1673ffffffffffffffffffffffffffffffffffffffff1681526020018273ffffffffffffffffffffffffffffffffffffffff1673ffffffffffffffffffffffffffffffffffffffff16815260200192505050600060405180830381600087803b158015611bbd57600080fd5b505af1158015611bd1573d6000803e3d6000fd5b505050507f89a6354fb229eda6cbc28306798727b4d524818d2c375220bc3f360f24cffaca88604051808273ffffffffffffffffffffffffffffffffffffffff1673ffffffffffffffffffffffffffffffffffffffff16815260200191505060405180910390a15b5050505050505050565b60008660ff16600760003373ffffffffffffffffffffffffffffffffffffffff1673ffffffffffffffffffffffffffffffffffffffff1681526020019081526020016000206001016000600381101515611c9957fe5b602091828204019190069054906101000a900460ff1660ff161480611d2857508660ff16600760003373ffffffffffffffffffffffffffffffffffffffff1673ffffffffffffffffffffffffffffffffffffffff1681526020019081526020016000206001016001600381101515611d0d57fe5b602091828204019190069054906101000a900460ff1660ff16145b80611d9d57508660ff16600760003373ffffffffffffffffffffffffffffffffffffffff1673ffffffffffffffffffffffffffffffffffffffff1681526020019081526020016000206001016002600381101515611d8257fe5b602091828204019190069054906101000a900460ff1660ff16145b1515611e37576040517f08c379a00000000000000000000000000000000000000000000000000000000081526004018080602001828103825260238152602001807f496e64657820646f6573206e6f74206d61746368206f7261636c65207265717581526020017f657374000000000000000000000000000000000000000000000000000000000081525060400191505060405180910390fd5b8686868686604051602001808660ff1660ff167f01000000000000000000000000000000000000000000000000000000000000000281526001018573ffffffffffffffffffffffffffffffffffffffff1673ffffffffffffffffffffffffffffffffffffffff166c010000000000000000000000000281526014018484808284378201915050828152602001955050505050506040516020818303038152906040526040518082805190602001908083835b602083101515611f0e5780518252602082019150602081019050602083039250611ee9565b6001836020036101000a0380198251168184511680821785525050505050509050019150506040518091039020905060086000826000191660001916815260200190815260200160002060000160149054906101000a900460ff161515612003576040517f08c379a000000000000000000000000000000000000000000000000000000000815260040180806020018281038252602f8152602001807f466c69676874206f722074696d657374616d7020646f206e6f74206d6174636881526020017f206f7261636c652072657175657374000000000000000000000000000000000081525060400191505060405180910390fd5b60086000826000191660001916815260200190815260200160002060010160008360ff1660ff1681526020019081526020016000203390806001815401808255809150509060018203906000526020600020016000909192909190916101000a81548173ffffffffffffffffffffffffffffffffffffffff021916908373ffffffffffffffffffffffffffffffffffffffff160217905550507f43c853095c2752648493c88b4baac4d580d2594ffb00c6f1d4242d844514f7838686868686604051808673ffffffffffffffffffffffffffffffffffffffff1673ffffffffffffffffffffffffffffffffffffffff168152602001806020018481526020018360ff1660ff16815260200182810382528686828181526020019250808284378201915050965050505050505060405180910390a1600360086000836000191660001916815260200190815260200160002060010160008460ff1660ff16815260200190815260200160002080549050101515612251577fe23f5229de535c091e3b7bec2665f5d698192d3b31393066e8987b7a05076b6c8686868686604051808673ffffffffffffffffffffffffffffffffffffffff1673ffffffffffffffffffffffffffffffffffffffff168152602001806020018481526020018360ff1660ff16815260200182810382528686828181526020019250808284378201915050965050505050505060405180910390a161225085858080601f01602080910402602001604051908101604052809392919081815260200183838082843782019150505050505083612c0f565b5b50505050505050565b6000600360009054906101000a900473ffffffffffffffffffffffffffffffffffffffff1673ffffffffffffffffffffffffffffffffffffffff1663cd02ac6884846040518363ffffffff167c01000000000000000000000000000000000000000000000000000000000281526004018080602001828103825284848281815260200192508082843782019150509350505050602060405180830381600087803b15801561230757600080fd5b505af115801561231b573d6000803e3d6000fd5b505050506040513d602081101561233157600080fd5b8101908080519060200190929190505050905092915050565b60008060009054906101000a900460ff16905090565b60008060009054906101000a900460ff16151561240b576040517f08c379a00000000000000000000000000000000000000000000000000000000081526004018080602001828103825260258152602001807f436f6e74726163742069732063757272656e746c79206e6f74206f706572617481526020017f696f6e616c00000000000000000000000000000000000000000000000000000081525060400191505060405180910390fd5b6000151561244c8585858080601f01602080910402602001604051908101604052809392919081815260200183838082843782019150505050505088610e9e565b15151415156124e9576040517f08c379a00000000000000000000000000000000000000000000000000000000081526004018080602001828103825260218152602001807f5468697320666c6967687420697320616c72656164792072656769737465726581526020017f640000000000000000000000000000000000000000000000000000000000000081525060400191505060405180910390fd5b6125268484848080601f0160208091040260200160405190810160405280939291908181526020018383808284378201915050505050508761292e565b905060a060405190810160405280600115158152602001600060ff1681526020018681526020018573ffffffffffffffffffffffffffffffffffffffff16815260200184848080601f01602080910402602001604051908101604052809392919081815260200183838082843782019150505050505081525060056000836000191660001916815260200190815260200160002060008201518160000160006101000a81548160ff02191690831515021790555060208201518160000160016101000a81548160ff021916908360ff1602179055506040820151816001015560608201518160020160006101000a81548173ffffffffffffffffffffffffffffffffffffffff021916908373ffffffffffffffffffffffffffffffffffffffff1602179055506080820151816003019080519060200190612668929190613076565b509050507fc12949a930abfa1f117c97c1dd14276790d886abcefa3904e4d49715dca5a3358383604051808060200182810382528484828181526020019250808284378201915050935050505060405180910390a15050505050565b6000806126d033612dcd565b91508186868686604051602001808660ff1660ff167f01000000000000000000000000000000000000000000000000000000000000000281526001018573ffffffffffffffffffffffffffffffffffffffff1673ffffffffffffffffffffffffffffffffffffffff166c010000000000000000000000000281526014018484808284378201915050828152602001955050505050506040516020818303038152906040526040518082805190602001908083835b6020831015156127a95780518252602082019150602081019050602083039250612784565b6001836020036101000a0380198251168184511680821785525050505050509050019150506040518091039020905060408051908101604052803373ffffffffffffffffffffffffffffffffffffffff1681526020016001151581525060086000836000191660001916815260200190815260200160002060008201518160000160006101000a81548173ffffffffffffffffffffffffffffffffffffffff021916908373ffffffffffffffffffffffffffffffffffffffff16021790555060208201518160000160146101000a81548160ff0219169083151502179055509050507f3ed01f2c3fc24c6b329d931e35b03e390d23497d22b3f90e15b600343e93df118287878787604051808660ff1660ff1681526020018573ffffffffffffffffffffffffffffffffffffffff1673ffffffffffffffffffffffffffffffffffffffff1681526020018060200183815260200182810382528585828181526020019250808284378201915050965050505050505060405180910390a1505050505050565b6000838383604051602001808473ffffffffffffffffffffffffffffffffffffffff1673ffffffffffffffffffffffffffffffffffffffff166c0100000000000000000000000002815260140183805190602001908083835b6020831015156129ac5780518252602082019150602081019050602083039250612987565b6001836020036101000a03801982511681845116808217855250505050505090500182815260200193505050506040516020818303038152906040526040518082805190602001908083835b602083101515612a1d57805182526020820191506020810190506020830392506129f8565b6001836020036101000a038019825116818451168082178552505050505050905001915050604051809103902090509392505050565b612a5b612fb9565b612a63612fb9565b612a6c83612dcd565b816000600381101515612a7b57fe5b602002019060ff16908160ff1681525050806000600381101515612a9b57fe5b6020020151816001600381101515612aaf57fe5b602002019060ff16908160ff16815250505b806000600381101515612ad057fe5b602002015160ff16816001600381101515612ae757fe5b602002015160ff161415612b2357612afe83612dcd565b816001600381101515612b0d57fe5b602002019060ff16908160ff1681525050612ac1565b806001600381101515612b3257fe5b6020020151816002600381101515612b4657fe5b602002019060ff16908160ff16815250505b806000600381101515612b6757fe5b602002015160ff16816002600381101515612b7e57fe5b602002015160ff161480612bbd5750806001600381101515612b9c57fe5b602002015160ff16816002600381101515612bb357fe5b602002015160ff16145b15612bf057612bcb83612dcd565b816002600381101515612bda57fe5b602002019060ff16908160ff1681525050612b58565b80915050919050565b60008183811515612c0657fe5b04905092915050565b601460ff168160ff161415612dc957600360009054906101000a900473ffffffffffffffffffffffffffffffffffffffff1673ffffffffffffffffffffffffffffffffffffffff16633fcf1cf4836040518263ffffffff167c01000000000000000000000000000000000000000000000000000000000281526004018080602001828103825283818151815260200191508051906020019080838360005b83811015612cc8578082015181840152602081019050612cad565b50505050905090810190601f168015612cf55780820380516001836020036101000a031916815260200191505b5092505050600060405180830381600087803b158015612d1457600080fd5b505af1158015612d28573d6000803e3d6000fd5b505050507f48e17a1cf5ca0f43c8887be65659a519a262eb05f8d3ed21d9be58bcb7b6f099826040518080602001828103825283818151815260200191508051906020019080838360005b83811015612d8e578082015181840152602081019050612d73565b50505050905090810190601f168015612dbb5780820380516001836020036101000a031916815260200191505b509250505060405180910390a15b5050565b6000806000600a91508160ff166006600081819054906101000a900460ff168092919060010191906101000a81548160ff021916908360ff16021790555060ff16430340856040516020018083600019166000191681526020018273ffffffffffffffffffffffffffffffffffffffff1673ffffffffffffffffffffffffffffffffffffffff166c01000000000000000000000000028152601401925050506040516020818303038152906040526040518082805190602001908083835b602083101515612eb05780518252602082019150602081019050602083039250612e8b565b6001836020036101000a038019825116818451168082178552505050505050905001915050604051809103902060019004811515612eea57fe5b06905060fa600660009054906101000a900460ff1660ff161115612f25576000600660006101000a81548160ff021916908360ff1602179055505b8092505050919050565b828054828255906000526020600020908101928215612fa8579160200282015b82811115612fa75782518260006101000a81548173ffffffffffffffffffffffffffffffffffffffff021916908373ffffffffffffffffffffffffffffffffffffffff16021790555091602001919060010190612f4f565b5b509050612fb591906130f6565b5090565b606060405190810160405280600390602082028038833980820191505090505090565b826003601f016020900481019282156130655791602002820160005b8382111561303657835183826101000a81548160ff021916908360ff1602179055509260200192600101602081600001049283019260010302612ff8565b80156130635782816101000a81549060ff0219169055600101602081600001049283019260010302613036565b505b5090506130729190613139565b5090565b828054600181600116156101000203166002900490600052602060002090601f016020900481019282601f106130b757805160ff19168380011785556130e5565b828001600101855582156130e5579182015b828111156130e45782518255916020019190600101906130c9565b5b5090506130f29190613169565b5090565b61313691905b8082111561313257600081816101000a81549073ffffffffffffffffffffffffffffffffffffffff0219169055506001016130fc565b5090565b90565b61316691905b8082111561316257600081816101000a81549060ff02191690555060010161313f565b5090565b90565b61318b91905b8082111561318757600081600090555060010161316f565b5090565b905600a165627a7a72305820b4609ba04101c790d021724762c2790e4998d2828a0bf4066480bba0377c7aca0029",
  "source": "pragma solidity >=0.4.24;\n\n// It's important to avoid vulnerabilities due to numeric overflow bugs\n// OpenZeppelin's SafeMath library, when used correctly, protects agains such bugs\n// More info: https://www.nccgroup.trust/us/about-us/newsroom-and-events/blog/2018/november/smart-contract-insecurity-bad-arithmetic/\n\nimport \"../node_modules/openzeppelin-solidity/contracts/math/SafeMath.sol\";\n\n/************************************************** */\n/* FlightSurety Smart Contract                      */\n/************************************************** */\ncontract FlightSuretyApp {\n    using SafeMath for uint256; // Allow SafeMath functions to be called for all uint256 types (similar to \"prototype\" in Javascript)\n\n    /********************************************************************************************/\n    /*                                       DATA VARIABLES                                     */\n    /********************************************************************************************/\n\n    //Operation variables\n    uint constant M = 3; //Number of confirmations require to stop operation\n    bool private operational = true;            // Blocks all state changes throughout the contract if false\n    address[] multiCalls = new address[](0);\n\n    address private contractOwner;          // Account used to deploy contract\n    FlightSuretyData flightSuretyData;\n\n    // Flight status codees\n    uint8 private constant STATUS_CODE_UNKNOWN = 0;\n    uint8 private constant STATUS_CODE_ON_TIME = 10;\n    uint8 private constant STATUS_CODE_LATE_AIRLINE = 20;\n    uint8 private constant STATUS_CODE_LATE_WEATHER = 30;\n    uint8 private constant STATUS_CODE_LATE_TECHNICAL = 40;\n    uint8 private constant STATUS_CODE_LATE_OTHER = 50;\n\n    // Fee to be paid when registering airline\n    uint256 public constant REGISTRATION_FEE_AIRLINES = 10 ether;\n\n    // Maximum insurance fee that can be accepted\n    uint256 public constant MAX_INSURANCE_PASSENGER = 1 ether;\n\n    // Number of airlines that can register before consensus requirement\n    uint256 public constant AIRLINE_NUM_BEFORE_CONS = 4;\n    address[] consensusVotes = new address[](0); //Array to record votes for Consensus\n\n    struct Flight {\n        bool isRegistered;\n        uint8 statusCode;\n        uint256 updatedTimestamp;        \n        address airline;\n        string flightNumber;\n    }\n    mapping(bytes32 => Flight) private flights;\n\n    /********************************************************************************************/\n    /*                                       Events                                             */\n    /********************************************************************************************/\n    event AirlineRegistered(address _airline); //Event triggered when Airline is Registered\n    event AirlineFunded(address _airline); //Event triggered when Airline is Funded\n    event InsureesCredited(string _flightNumber); //Event triggered when Passenger is paid insurance\n    event PassengerInsured(); //Event triggered when passenger purchases insurance\n    event FlightRegistered(string _flight);//Event triggered when flight is registered\n\n    /********************************************************************************************/\n    /*                                       FUNCTION MODIFIERS                                 */\n    /********************************************************************************************/\n\n    // Modifiers help avoid duplication of code. They are typically used to validate something\n    // before a function is allowed to be executed.\n\n    /**\n    * @dev Modifier that requires the \"operational\" boolean variable to be \"true\"\n    *      This is used on all state changing functions to pause the contract in \n    *      the event there is an issue that needs to be fixed\n    */\n    modifier requireIsOperational() \n    {\n         // Modify to call data contract's status\n        require(operational, \"Contract is currently not operational\");  \n        _;  // All modifiers require an \"_\" which indicates where the function body will be added\n    }\n\n    /**\n    * @dev Modifier that requires the \"ContractOwner\" account to be the function caller\n    */\n    modifier requireContractOwner()\n    {\n        require(msg.sender == contractOwner, \"Caller is not contract owner\");\n        _;\n    }\n\n    /**\n    * @dev Modifier that requires the flight to be registered before it can be insured\n    */\n    modifier requireIsFlightRegistered(address airline, string memory flight, uint time)\n    {\n        require(isFlightRegistered(airline, flight, time) == true, \"Flight is not insured\");\n        _;\n    }\n\n    /********************************************************************************************/\n    /*                                       CONSTRUCTOR                                        */\n    /********************************************************************************************/\n\n    /**\n    * @dev Contract constructor\n    *\n    */\n    constructor(address dataContract) public \n    {\n        contractOwner = msg.sender;\n        flightSuretyData = FlightSuretyData(dataContract);\n    }\n\n    /********************************************************************************************/\n    /*                                       UTILITY FUNCTIONS                                  */\n    /********************************************************************************************/\n\n    function isOperational() \n                            public \n                            view \n                            returns(bool) \n    {\n        return operational;  // Modify to call data contract's status\n    }\n\n    function isFlightRegistered\n        (\n            address airline, \n            string memory flight, \n            uint timestamp\n        ) \n        public \n        view \n        returns(bool) \n    {\n        bytes32 key = getFlightKey(airline, flight, timestamp);\n        return flights[key].isRegistered;  // Modify to call data contract's status\n    }\n\n    /**\n    * @dev Sets contract operations on/off\n    *\n    * When operational mode is disabled, all write transactions except for this one will fail\n    */    \n    function setOperatingStatus\n        (\n            bool mode\n        ) \n        external\n        requireIsOperational\n    {\n        require(mode != operational, \"New mode must be different from existing mode\");\n        require(flightSuretyData.isFunded(msg.sender), \"Caller is not a funded airline.\");\n\n        bool isDuplicate = false;\n        for(uint c=0; c<multiCalls.length; c++) {\n            if (multiCalls[c] == msg.sender) {\n                isDuplicate = true;\n                break;\n            }\n        }\n        require(!isDuplicate, \"Caller has already called this function.\");\n\n        multiCalls.push(msg.sender);\n        if (multiCalls.length >= M) {\n            operational = mode;      \n            multiCalls = new address[](0);      \n        }\n    }\n\n    /********************************************************************************************/\n    /*                                     SMART CONTRACT FUNCTIONS                             */\n    /********************************************************************************************/\n\n  \n   /**\n    * @dev Add an airline to the registration queue\n    *\n    */   \n     function registerAirline\n        (\n            address _airline\n        ) \n        requireIsOperational        \n        external \n    {\n        //Check how many airlines registered\n        uint256 number = flightSuretyData._getRegisteredAirlinesNum();\n\n        bool register = true;\n        //success = false;\n        uint votes = 0;\n\n        // if number of airlines registered is greater than 4 perform the consensus check\n        if(number >= AIRLINE_NUM_BEFORE_CONS){\n            //check if caller is a registered airlines\n            bool isRegistered = flightSuretyData.isRegistered(msg.sender);\n            require(isRegistered == true, \"Caller is not a registered airline\");\n\n            bool isDuplicate = false;\n            register = false;\n            for(uint c = 0; c < consensusVotes.length; c++) {\n                if (consensusVotes[c] == msg.sender) {\n                    isDuplicate = true;\n                    break;\n                }\n            }\n            require(!isDuplicate, \"Caller has already called this function.\");\n\n            consensusVotes.push(msg.sender);\n            votes = consensusVotes.length;\n            uint check = number.div(2);\n            if (votes >= check) {\n                register = true;      \n                consensusVotes = new address[](0);      \n            }\n          \n        }\n          \n        if(register == true) {\n            flightSuretyData.registerAirline(_airline, msg.sender);\n            emit AirlineRegistered(_airline);\n        }\n        \n    } \n\n    /**\n    * @dev Initial funding for the insurance. Unless there are too many delayed flights\n    *      resulting in insurance payouts, the contract should be self-sustaining\n    *\n    */   \n    function fund (address airline) external payable requireIsOperational\n    {\n        require(msg.value == REGISTRATION_FEE_AIRLINES, \"Not enough Ether to fund airline. Requires 10 ETH\" );\n        flightSuretyData.fund(REGISTRATION_FEE_AIRLINES, airline, msg.sender);\n        emit AirlineFunded(airline);\n    }\n\n    \n   /**\n    * @dev Register a future flight for insuring.\n    *\n    */  \n    function registerFlight\n        (\n            uint256 time,  \n            address _airline,\n            string flightNumber\n        ) \n        external \n        requireIsOperational\n    {\n        require(isFlightRegistered(_airline, flightNumber, time) == false, \"This flight is already registered\");\n        bytes32 key = getFlightKey(_airline, flightNumber, time);\n        flights[key] = Flight({isRegistered: true, statusCode: STATUS_CODE_UNKNOWN, updatedTimestamp: time, airline: _airline, flightNumber: flightNumber});\n        emit FlightRegistered(flightNumber);\n    }\n\n    /**\n    * @dev Insure passenger for a future flight.\n    *\n    */  \n    function insurePassenger\n        (\n            string flight,\n            uint256 time,\n            address airline,\n            address passenger\n        )\n    external\n    payable\n    requireIsOperational\n    //requireIsFlightRegistered(airline, flight, time)\n    {\n        require(msg.value <= MAX_INSURANCE_PASSENGER, \"Passengers can pay a max of 1 ETH\");\n        flightSuretyData.buy(flight, time, passenger, msg.sender, msg.value);\n        emit PassengerInsured();\n    }\n    \n   /**\n    * @dev Called after oracle has updated flight status\n    *\n    */  \n    function processFlightStatus\n        (\n            string memory flight,\n            uint8 statusCode\n        )\n        internal\n    {\n        if(statusCode == STATUS_CODE_LATE_AIRLINE){\n            flightSuretyData.creditInsurees(flight);\n            emit InsureesCredited(flight);\n        }\n    }\n\n    /**\n    * @dev Called when passenger wants to withdraw insurance payout\n    *\n    */  \n    function withdrawPayout() external payable\n    {\n        flightSuretyData.withdraw(msg.sender, msg.value);\n    }\n\n    /**\n    * @dev Called when passenger wants to withdraw insurance payout\n    *\n    */  \n    function getFlightsInsured\n        (\n            address passenger, \n            string flight\n        ) \n        external \n        returns\n        (\n            uint amount\n        )\n    {\n        amount = flightSuretyData.getFlightsInsured(passenger, flight);\n    }\n\n    function getFlightAmountInsured\n        (\n            string flight\n        )\n        external \n        returns\n        (\n            uint amount\n        )\n    {\n        amount = flightSuretyData.getFlightAmountInsured(flight);\n    }\n\n\n    // Generate a request for oracles to fetch flight information\n    function fetchFlightStatus\n        (\n            address airline,\n            string  flight,\n            uint256 timestamp                            \n        )\n        external\n    {\n        uint8 index = getRandomIndex(msg.sender);\n\n        // Generate a unique key for storing the request\n        bytes32 key = keccak256(abi.encodePacked(index, airline, flight, timestamp));\n        oracleResponses[key] = ResponseInfo({requester: msg.sender, isOpen: true});\n\n        emit OracleRequest(index, airline, flight, timestamp);\n    } \n\n    \n// region ORACLE MANAGEMENT\n\n    // Incremented to add pseudo-randomness at various points\n    uint8 private nonce = 0;    \n\n    // Fee to be paid when registering oracle\n    uint256 public constant REGISTRATION_FEE = 1 ether;\n\n    // Number of oracles that must respond for valid status\n    uint256 private constant MIN_RESPONSES = 3;\n\n    struct Oracle {\n        bool isRegistered;\n        uint8[3] indexes;        \n    }\n\n    // Track all registered oracles\n    mapping(address => Oracle) private oracles;\n\n    // Model for responses from oracles\n    struct ResponseInfo {\n        address requester;                              // Account that requested status\n        bool isOpen;                                    // If open, oracle responses are accepted\n        mapping(uint8 => address[]) responses;          // Mapping key is the status code reported\n                                                        // This lets us group responses and identify\n                                                        // the response that majority of the oracles\n    }\n\n    // Track all oracle responses\n    // Key = hash(index, flight, timestamp)\n    mapping(bytes32 => ResponseInfo) private oracleResponses;\n\n    // Event fired each time an oracle submits a response\n    event FlightStatusInfo(address airline, string flight, uint256 timestamp, uint8 status);\n\n    event OracleReport(address airline, string flight, uint256 timestamp, uint8 status);\n\n    // Event fired when flight status request is submitted\n    // Oracles track this and if they have a matching index\n    // they fetch data and submit a response\n    event OracleRequest(uint8 index, address airline, string flight, uint256 timestamp);\n\n\n    // Register an oracle with the contract\n    function registerOracle() external payable\n    {\n        // Require registration fee\n        require(msg.value >= REGISTRATION_FEE, \"Registration fee is required\");\n\n        uint8[3] memory indexes = generateIndexes(msg.sender);\n\n        oracles[msg.sender] = Oracle({isRegistered: true, indexes: indexes});\n    }\n\n    function getMyIndexes\n        (\n        )\n        view\n        external\n        returns(uint8[3] memory)\n    {\n        require(oracles[msg.sender].isRegistered, \"Not registered as an oracle\");\n\n        return oracles[msg.sender].indexes;\n    }\n\n    // Called by oracle when a response is available to an outstanding request\n    // For the response to be accepted, there must be a pending request that is open\n    // and matches one of the three Indexes randomly assigned to the oracle at the\n    // time of registration (i.e. uninvited oracles are not welcome)\n    function submitOracleResponse\n        (\n            uint8 index,\n            address airline,\n            string  flight,\n            uint256 timestamp,\n            uint8 statusCode\n        )\n        external\n    {\n        require((oracles[msg.sender].indexes[0] == index) || (oracles[msg.sender].indexes[1] == index) || (oracles[msg.sender].indexes[2] == index), \"Index does not match oracle request\");\n\n        bytes32 key = keccak256(abi.encodePacked(index, airline, flight, timestamp)); \n        require(oracleResponses[key].isOpen, \"Flight or timestamp do not match oracle request\");\n\n        oracleResponses[key].responses[statusCode].push(msg.sender);\n\n        // Information isn't considered verified until at least MIN_RESPONSES\n        // oracles respond with the *** same *** information\n        emit OracleReport(airline, flight, timestamp, statusCode);\n        if (oracleResponses[key].responses[statusCode].length >= MIN_RESPONSES) {\n\n            emit FlightStatusInfo(airline, flight, timestamp, statusCode);\n\n            // Handle flight status as appropriate\n            processFlightStatus(flight, statusCode);\n        }\n    }\n\n    function getFlightKey\n        (\n            address airline,\n            string memory flight,\n            uint256 timestamp\n        )\n        pure\n        internal\n        returns(bytes32) \n    {\n        return keccak256(abi.encodePacked(airline, flight, timestamp));\n    }\n\n    // Returns array of three non-duplicating integers from 0-9\n    function generateIndexes\n        (                       \n            address account         \n        )\n        internal\n        returns\n        (\n            uint8[3] memory\n        )\n    {\n        uint8[3] memory indexes;\n        indexes[0] = getRandomIndex(account);\n        \n        indexes[1] = indexes[0];\n        while(indexes[1] == indexes[0]) {\n            indexes[1] = getRandomIndex(account);\n        }\n\n        indexes[2] = indexes[1];\n        while((indexes[2] == indexes[0]) || (indexes[2] == indexes[1])) {\n            indexes[2] = getRandomIndex(account);\n        }\n\n        return indexes;\n    }\n\n    // Returns array of three non-duplicating integers from 0-9\n    function getRandomIndex\n        (\n            address account\n        )\n        internal\n        returns (uint8)\n    {\n        uint8 maxValue = 10;\n\n        // Pseudo random number...the incrementing nonce adds variation\n        uint8 random = uint8(uint256(keccak256(abi.encodePacked(blockhash(block.number - nonce++), account))) % maxValue);\n\n        if (nonce > 250) {\n            nonce = 0;  // Can only fetch blockhashes for last 256 blocks so we adapt\n        }\n\n        return random;\n    }\n\n// endregion\n\n}   \n\ncontract FlightSuretyData {\n    function registerAirline (address _airline, address caller) external;\n    function _getRegisteredAirlinesNum() external returns(uint number);\n    function fund (uint256 fundAmt, address _airline, address sender) public payable;\n    function creditInsurees (string  flight) external;\n    function isRegistered(address _airline) public returns(bool _reg);\n    function isFunded(address _airline) public returns(bool _reg);\n    function buy(string  flight, uint256 time, address passenger, address sender, uint256 amount) public payable;\n    function withdraw(address payee, uint amount) external payable;\n    function getFlightsInsured(address passenger, string flight) external returns(uint amount);\n    function getFlightAmountInsured(string flight) external view returns(uint amount) ;\n}\n",
  "sourcePath": "/mnt/c/Users/avant/Desktop/flightsurety/contracts/FlightSuretyApp.sol",
  "compiler": {
    "name": "solc",
    "version": "0.4.24+commit.e67f0147.Emscripten.clang"
  },
  "schemaVersion": "2.0.1",
  "updatedAt": "2019-03-18T21:35:25.650Z"
}