{
  "contractName": "FlightSuretyData",
  "abi": [
    {
      "constant": true,
      "inputs": [
        {
          "name": "",
          "type": "address"
        }
      ],
      "name": "RegisteredAirlines",
      "outputs": [
        {
          "name": "isRegistered",
          "type": "bool"
        },
        {
          "name": "isFunded",
          "type": "bool"
        },
        {
          "name": "airlineAddress",
          "type": "address"
        }
      ],
      "payable": false,
      "stateMutability": "view",
      "type": "function"
    },
    {
      "inputs": [
        {
          "name": "_airline",
          "type": "address"
        }
      ],
      "payable": false,
      "stateMutability": "nonpayable",
      "type": "constructor"
    },
    {
      "payable": true,
      "stateMutability": "payable",
      "type": "fallback"
    },
    {
      "constant": true,
      "inputs": [],
      "name": "isOperational",
      "outputs": [
        {
          "name": "",
          "type": "bool"
        }
      ],
      "payable": false,
      "stateMutability": "view",
      "type": "function"
    },
    {
      "constant": false,
      "inputs": [
        {
          "name": "_caller",
          "type": "address"
        }
      ],
      "name": "authorizeCaller",
      "outputs": [],
      "payable": false,
      "stateMutability": "nonpayable",
      "type": "function"
    },
    {
      "constant": true,
      "inputs": [
        {
          "name": "_caller",
          "type": "address"
        }
      ],
      "name": "isAuthorized",
      "outputs": [
        {
          "name": "",
          "type": "bool"
        }
      ],
      "payable": false,
      "stateMutability": "view",
      "type": "function"
    },
    {
      "constant": false,
      "inputs": [
        {
          "name": "_caller",
          "type": "address"
        }
      ],
      "name": "deAuthorizeCaller",
      "outputs": [],
      "payable": false,
      "stateMutability": "nonpayable",
      "type": "function"
    },
    {
      "constant": true,
      "inputs": [
        {
          "name": "airline",
          "type": "address"
        }
      ],
      "name": "isRegistered",
      "outputs": [
        {
          "name": "",
          "type": "bool"
        }
      ],
      "payable": false,
      "stateMutability": "view",
      "type": "function"
    },
    {
      "constant": true,
      "inputs": [
        {
          "name": "airline",
          "type": "address"
        }
      ],
      "name": "isFunded",
      "outputs": [
        {
          "name": "",
          "type": "bool"
        }
      ],
      "payable": false,
      "stateMutability": "view",
      "type": "function"
    },
    {
      "constant": true,
      "inputs": [
        {
          "name": "passenger",
          "type": "address"
        },
        {
          "name": "flight",
          "type": "string"
        }
      ],
      "name": "isInsured",
      "outputs": [
        {
          "name": "success",
          "type": "bool"
        }
      ],
      "payable": false,
      "stateMutability": "view",
      "type": "function"
    },
    {
      "constant": false,
      "inputs": [
        {
          "name": "mode",
          "type": "bool"
        }
      ],
      "name": "setOperatingStatus",
      "outputs": [],
      "payable": false,
      "stateMutability": "nonpayable",
      "type": "function"
    },
    {
      "constant": false,
      "inputs": [
        {
          "name": "_airline",
          "type": "address"
        },
        {
          "name": "caller",
          "type": "address"
        }
      ],
      "name": "registerAirline",
      "outputs": [
        {
          "name": "success",
          "type": "bool"
        }
      ],
      "payable": false,
      "stateMutability": "nonpayable",
      "type": "function"
    },
    {
      "constant": true,
      "inputs": [],
      "name": "_getRegisteredAirlinesNum",
      "outputs": [
        {
          "name": "number",
          "type": "uint256"
        }
      ],
      "payable": false,
      "stateMutability": "view",
      "type": "function"
    },
    {
      "constant": false,
      "inputs": [
        {
          "name": "flight",
          "type": "string"
        },
        {
          "name": "time",
          "type": "uint256"
        },
        {
          "name": "passenger",
          "type": "address"
        },
        {
          "name": "amount",
          "type": "uint256"
        }
      ],
      "name": "buy",
      "outputs": [],
      "payable": true,
      "stateMutability": "payable",
      "type": "function"
    },
    {
      "constant": false,
      "inputs": [
        {
          "name": "flight",
          "type": "string"
        }
      ],
      "name": "creditInsurees",
      "outputs": [],
      "payable": false,
      "stateMutability": "nonpayable",
      "type": "function"
    },
    {
      "constant": true,
      "inputs": [
        {
          "name": "pass",
          "type": "address"
        },
        {
          "name": "flight",
          "type": "string"
        }
      ],
      "name": "getFlightIndex",
      "outputs": [
        {
          "name": "index",
          "type": "uint256"
        }
      ],
      "payable": false,
      "stateMutability": "view",
      "type": "function"
    },
    {
      "constant": false,
      "inputs": [
        {
          "name": "payee",
          "type": "address"
        },
        {
          "name": "amount",
          "type": "uint256"
        }
      ],
      "name": "withdraw",
      "outputs": [],
      "payable": true,
      "stateMutability": "payable",
      "type": "function"
    },
    {
      "constant": false,
      "inputs": [
        {
          "name": "fundAmt",
          "type": "uint256"
        },
        {
          "name": "_airline",
          "type": "address"
        }
      ],
      "name": "fund",
      "outputs": [],
      "payable": true,
      "stateMutability": "payable",
      "type": "function"
    },
    {
      "constant": true,
      "inputs": [
        {
          "name": "passenger",
          "type": "address"
        },
        {
          "name": "flight",
          "type": "string"
        }
      ],
      "name": "getFlightsInsured",
      "outputs": [
        {
          "name": "amount",
          "type": "uint256"
        }
      ],
      "payable": false,
      "stateMutability": "view",
      "type": "function"
    },
    {
      "constant": true,
      "inputs": [
        {
          "name": "flight",
          "type": "string"
        }
      ],
      "name": "getFlightAmountInsured",
      "outputs": [
        {
          "name": "amount",
          "type": "uint256"
        }
      ],
      "payable": false,
      "stateMutability": "view",
      "type": "function"
    },
    {
      "constant": true,
      "inputs": [],
      "name": "testFunction",
      "outputs": [
        {
          "name": "success",
          "type": "bool"
        }
      ],
      "payable": false,
      "stateMutability": "view",
      "type": "function"
    },
    {
      "constant": true,
      "inputs": [
        {
          "name": "passen",
          "type": "address"
        }
      ],
      "name": "testFunction2",
      "outputs": [
        {
          "name": "flights",
          "type": "string"
        }
      ],
      "payable": false,
      "stateMutability": "view",
      "type": "function"
    }
  ],
  "bytecode": "0x608060405260016000806101000a81548160ff021916908315150217905550600a6003553480156200003057600080fd5b50604051602080620034c68339810180604052810190808051906020019092919050505033600260006101000a81548173ffffffffffffffffffffffffffffffffffffffff021916908373ffffffffffffffffffffffffffffffffffffffff160217905550620000af81620000b6640100000000026401000000009004565b50620003b6565b6000809054906101000a900460ff16151562000160576040517f08c379a00000000000000000000000000000000000000000000000000000000081526004018080602001828103825260258152602001807f436f6e74726163742069732063757272656e746c79206e6f74206f706572617481526020017f696f6e616c00000000000000000000000000000000000000000000000000000081525060400191505060405180910390fd5b600260009054906101000a900473ffffffffffffffffffffffffffffffffffffffff1673ffffffffffffffffffffffffffffffffffffffff163373ffffffffffffffffffffffffffffffffffffffff161415156200024c576040517f08c379a00000000000000000000000000000000000000000000000000000000081526004018080602001828103825260218152602001807f556e617574686f72697a656420746f2075736520746869732066756e6374696f81526020017f6e0000000000000000000000000000000000000000000000000000000000000081525060400191505060405180910390fd5b6060604051908101604052806001151581526020016001151581526020018273ffffffffffffffffffffffffffffffffffffffff16815250600460008373ffffffffffffffffffffffffffffffffffffffff1673ffffffffffffffffffffffffffffffffffffffff16815260200190815260200160002060008201518160000160006101000a81548160ff02191690831515021790555060208201518160000160016101000a81548160ff02191690831515021790555060408201518160000160026101000a81548173ffffffffffffffffffffffffffffffffffffffff021916908373ffffffffffffffffffffffffffffffffffffffff16021790555090505060058190806001815401808255809150509060018203906000526020600020016000909192909190916101000a81548173ffffffffffffffffffffffffffffffffffffffff021916908373ffffffffffffffffffffffffffffffffffffffff1602179055505050565b61310080620003c66000396000f300608060405260043610610112576000357c0100000000000000000000000000000000000000000000000000000000900463ffffffff168063110466ed1461011f5780631bcd250a1461014e5780631c7ccb69146101915780632c388d5d146102325780633fcf1cf4146102755780635689b249146102b0578063609ab31d1461030b57806374cf8a84146103a85780638489a87e14610417578063a8665050146104d3578063b9e5a44314610563578063c3c5a5471461058e578063c7ba5018146105e9578063cd02ac6814610664578063cd905dff146106b3578063dcc5936f146106e2578063e16b4a9b1461077b578063eee92395146107aa578063f3fef3a3146107ea578063fe9fbb801461082a575b61011d346000610885565b005b34801561012b57600080fd5b5061014c600480360381019080803515159060200190929190505050610b80565b005b34801561015a57600080fd5b5061018f600480360381019080803573ffffffffffffffffffffffffffffffffffffffff169060200190929190505050610b9c565b005b34801561019d57600080fd5b50610218600480360381019080803573ffffffffffffffffffffffffffffffffffffffff169060200190929190803590602001908201803590602001908080601f0160208091040260200160405190810160405280939291908181526020018383808284378201915050505050509192919290505050610cbc565b604051808215151515815260200191505060405180910390f35b34801561023e57600080fd5b50610273600480360381019080803573ffffffffffffffffffffffffffffffffffffffff169060200190929190505050610cec565b005b34801561028157600080fd5b506102ae600480360381019080803590602001908201803590602001919091929391929390505050610e0b565b005b3480156102bc57600080fd5b506102f1600480360381019080803573ffffffffffffffffffffffffffffffffffffffff169060200190929190505050611369565b604051808215151515815260200191505060405180910390f35b34801561031757600080fd5b50610392600480360381019080803573ffffffffffffffffffffffffffffffffffffffff169060200190929190803590602001908201803590602001908080601f01602080910402602001604051908101604052809392919081815260200183838082843782019150505050505091929192905050506113c2565b6040518082815260200191505060405180910390f35b3480156103b457600080fd5b50610401600480360381019080803573ffffffffffffffffffffffffffffffffffffffff16906020019092919080359060200190820180359060200191909192939192939050505061171a565b6040518082815260200191505060405180910390f35b34801561042357600080fd5b50610458600480360381019080803573ffffffffffffffffffffffffffffffffffffffff169060200190929190505050611a56565b6040518080602001828103825283818151815260200191508051906020019080838360005b8381101561049857808201518184015260208101905061047d565b50505050905090810190601f1680156104c55780820380516001836020036101000a031916815260200191505b509250505060405180910390f35b610561600480360381019080803590602001908201803590602001908080601f016020809104026020016040519081016040528093929190818152602001838380828437820191505050505050919291929080359060200190929190803573ffffffffffffffffffffffffffffffffffffffff16906020019092919080359060200190929190505050611bfb565b005b34801561056f57600080fd5b506105786122e2565b6040518082815260200191505060405180910390f35b34801561059a57600080fd5b506105cf600480360381019080803573ffffffffffffffffffffffffffffffffffffffff16906020019092919050505061239b565b604051808215151515815260200191505060405180910390f35b3480156105f557600080fd5b5061064a600480360381019080803573ffffffffffffffffffffffffffffffffffffffff169060200190929190803573ffffffffffffffffffffffffffffffffffffffff1690602001909291905050506123f4565b604051808215151515815260200191505060405180910390f35b34801561067057600080fd5b5061069d600480360381019080803590602001908201803590602001919091929391929390505050612832565b6040518082815260200191505060405180910390f35b3480156106bf57600080fd5b506106c861290b565b604051808215151515815260200191505060405180910390f35b3480156106ee57600080fd5b50610723600480360381019080803573ffffffffffffffffffffffffffffffffffffffff169060200190929190505050612921565b6040518084151515158152602001831515151581526020018273ffffffffffffffffffffffffffffffffffffffff1673ffffffffffffffffffffffffffffffffffffffff168152602001935050505060405180910390f35b34801561078757600080fd5b50610790612985565b604051808215151515815260200191505060405180910390f35b6107e860048036038101908080359060200190929190803573ffffffffffffffffffffffffffffffffffffffff169060200190929190505050610885565b005b610828600480360381019080803573ffffffffffffffffffffffffffffffffffffffff16906020019092919080359060200190929190505050612a37565b005b34801561083657600080fd5b5061086b600480360381019080803573ffffffffffffffffffffffffffffffffffffffff169060200190929190505050612c39565b604051808215151515815260200191505060405180910390f35b6000809054906101000a900460ff16151561092e576040517f08c379a00000000000000000000000000000000000000000000000000000000081526004018080602001828103825260258152602001807f436f6e74726163742069732063757272656e746c79206e6f74206f706572617481526020017f696f6e616c00000000000000000000000000000000000000000000000000000081525060400191505060405180910390fd5b8060011515600460008373ffffffffffffffffffffffffffffffffffffffff1673ffffffffffffffffffffffffffffffffffffffff16815260200190815260200160002060000160009054906101000a900460ff161515141515610a20576040517f08c379a00000000000000000000000000000000000000000000000000000000081526004018080602001828103825260228152602001807f43616c6c6572206973206e6f7420612072656769737465726564206169726c6981526020017f6e6500000000000000000000000000000000000000000000000000000000000081525060400191505060405180910390fd5b60001515610a2d83611369565b1515141515610aa4576040517f08c379a00000000000000000000000000000000000000000000000000000000081526004018080602001828103825260198152602001807f4169726c696e6520697320616c72656164792066756e6465640000000000000081525060200191505060405180910390fd5b6001600460008473ffffffffffffffffffffffffffffffffffffffff1673ffffffffffffffffffffffffffffffffffffffff16815260200190815260200160002060000160016101000a81548160ff021916908315150217905550610b1483600354612c8f90919063ffffffff16565b5060058290806001815401808255809150509060018203906000526020600020016000909192909190916101000a81548173ffffffffffffffffffffffffffffffffffffffff021916908373ffffffffffffffffffffffffffffffffffffffff16021790555050505050565b806000806101000a81548160ff02191690831515021790555050565b600260009054906101000a900473ffffffffffffffffffffffffffffffffffffffff1673ffffffffffffffffffffffffffffffffffffffff163373ffffffffffffffffffffffffffffffffffffffff16141515610c61576040517f08c379a000000000000000000000000000000000000000000000000000000000815260040180806020018281038252601c8152602001807f43616c6c6572206973206e6f7420636f6e7472616374206f776e65720000000081525060200191505060405180910390fd5b6000600160008373ffffffffffffffffffffffffffffffffffffffff1673ffffffffffffffffffffffffffffffffffffffff16815260200190815260200160002060006101000a81548160ff02191690831515021790555050565b600080610cc984846113c2565b90506000811115610cdd5760019150610ce2565b600091505b8191505092915050565b600260009054906101000a900473ffffffffffffffffffffffffffffffffffffffff1673ffffffffffffffffffffffffffffffffffffffff163373ffffffffffffffffffffffffffffffffffffffff16141515610db1576040517f08c379a000000000000000000000000000000000000000000000000000000000815260040180806020018281038252601c8152602001807f43616c6c6572206973206e6f7420636f6e7472616374206f776e65720000000081525060200191505060405180910390fd5b60018060008373ffffffffffffffffffffffffffffffffffffffff1673ffffffffffffffffffffffffffffffffffffffff16815260200190815260200160002060006101000a81548160ff02191690831515021790555050565b606080606060008060008060008060009054906101000a900460ff161515610ec1576040517f08c379a00000000000000000000000000000000000000000000000000000000081526004018080602001828103825260258152602001807f436f6e74726163742069732063757272656e746c79206e6f74206f706572617481526020017f696f6e616c00000000000000000000000000000000000000000000000000000081525060400191505060405180910390fd5b60035460088b8b6040518083838082843782019150509250505090815260200160405180910390205411151515610f86576040517f08c379a00000000000000000000000000000000000000000000000000000000081526004018080602001828103825260228152602001807f4e6f7420656e6f7567682062616c616e636520746f2070617920696e7375726581526020017f657300000000000000000000000000000000000000000000000000000000000081525060400191505060405180910390fd5b60078a8a60405180838380828437820191505092505050908152602001604051809103902080548060200260200160405190810160405280929190818152602001828054801561102b57602002820191906000526020600020905b8160009054906101000a900473ffffffffffffffffffffffffffffffffffffffff1673ffffffffffffffffffffffffffffffffffffffff1681526020019060010190808311610fe1575b50505050509750600093505b875184101561135d5760066000898681518110151561105257fe5b9060200190602002015173ffffffffffffffffffffffffffffffffffffffff1673ffffffffffffffffffffffffffffffffffffffff16815260200190815260200160002060010180548060200260200160405190810160405280929190818152602001828054801561110857602002820191906000526020600020906000905b82829054906101000a900460ff161515815260200190600101906020826000010492830192600103820291508084116110d25790505b5050505050965060066000898681518110151561112157fe5b9060200190602002015173ffffffffffffffffffffffffffffffffffffffff1673ffffffffffffffffffffffffffffffffffffffff1681526020019081526020016000206002018054806020026020016040519081016040528092919081815260200182805480156111b257602002820191906000526020600020905b81548152602001906001019080831161119e575b5050505050955061120c88858151811015156111ca57fe5b906020019060200201518b8b8080601f0160208091040260200160405190810160405280939291908181526020018383808284378201915050505050506113c2565b94506001878681518110151561121e57fe5b906020019060200201901515908115158152505086600660008a8781518110151561124557fe5b9060200190602002015173ffffffffffffffffffffffffffffffffffffffff1673ffffffffffffffffffffffffffffffffffffffff168152602001908152602001600020600101908051906020019061129f929190612d12565b50600f9250600a91506112e46112be8385612cab90919063ffffffff16565b87878151811015156112cc57fe5b90602001906020020151612cc190919063ffffffff16565b905061134f81600960008b888151811015156112fc57fe5b9060200190602002015173ffffffffffffffffffffffffffffffffffffffff1673ffffffffffffffffffffffffffffffffffffffff16815260200190815260200160002054612c8f90919063ffffffff16565b508380600101945050611037565b50505050505050505050565b6000600460008373ffffffffffffffffffffffffffffffffffffffff1673ffffffffffffffffffffffffffffffffffffffff16815260200190815260200160002060000160019054906101000a900460ff169050919050565b60006060600060056040519080825280602002602001820160405280156113fd57816020015b60608152602001906001900390816113e85790505b509150600660008673ffffffffffffffffffffffffffffffffffffffff1673ffffffffffffffffffffffffffffffffffffffff168152602001908152602001600020600301805480602002602001604051908101604052809291908181526020016000905b8282101561151e578382906000526020600020018054600181600116156101000203166002900480601f01602080910402602001604051908101604052809291908181526020018280546001816001161561010002031660029004801561150a5780601f106114df5761010080835404028352916020019161150a565b820191906000526020600020905b8154815290600101906020018083116114ed57829003601f168201915b505050505081526020019060010190611462565b505050509150600090505b815181101561170d57836040516020018082805190602001908083835b60208310151561156b5780518252602082019150602081019050602083039250611546565b6001836020036101000a0380198251168184511680821785525050505050509050019150506040516020818303038152906040526040518082805190602001908083835b6020831015156115d457805182526020820191506020810190506020830392506115af565b6001836020036101000a038019825116818451168082178552505050505050905001915050604051809103902060019004828281518110151561161357fe5b906020019060200201516040516020018082805190602001908083835b6020831015156116555780518252602082019150602081019050602083039250611630565b6001836020036101000a0380198251168184511680821785525050505050509050019150506040516020818303038152906040526040518082805190602001908083835b6020831015156116be5780518252602082019150602081019050602083039250611699565b6001836020036101000a038019825116818451168082178552505050505050905001915050604051809103902060019004141561170057600181019250611712565b8080600101915050611529565b600092505b505092915050565b6000806000809054906101000a900460ff1615156117c6576040517f08c379a00000000000000000000000000000000000000000000000000000000081526004018080602001828103825260258152602001807f436f6e74726163742069732063757272656e746c79206e6f74206f706572617481526020017f696f6e616c00000000000000000000000000000000000000000000000000000081525060400191505060405180910390fd5b60009150600090505b600660008673ffffffffffffffffffffffffffffffffffffffff1673ffffffffffffffffffffffffffffffffffffffff16815260200190815260200160002060030180549050811015611a4e578383604051602001808383808284378201915050925050506040516020818303038152906040526040518082805190602001908083835b6020831015156118785780518252602082019150602081019050602083039250611853565b6001836020036101000a038019825116818451168082178552505050505050905001915050604051809103902060001916600660008773ffffffffffffffffffffffffffffffffffffffff1673ffffffffffffffffffffffffffffffffffffffff168152602001908152602001600020600301828154811015156118f857fe5b9060005260206000200160405160200180828054600181600116156101000203166002900480156119605780601f1061193e576101008083540402835291820191611960565b820191906000526020600020905b81548152906001019060200180831161194c575b50509150506040516020818303038152906040526040518082805190602001908083835b6020831015156119a95780518252602082019150602081019050602083039250611984565b6001836020036101000a0380198251168184511680821785525050505050509050019150506040518091039020600019161415611a4157600660008673ffffffffffffffffffffffffffffffffffffffff1673ffffffffffffffffffffffffffffffffffffffff16815260200190815260200160002060020181815481101515611a2f57fe5b90600052602060002001549150611a4e565b80806001019150506117cf565b509392505050565b60606000809054906101000a900460ff161515611b01576040517f08c379a00000000000000000000000000000000000000000000000000000000081526004018080602001828103825260258152602001807f436f6e74726163742069732063757272656e746c79206e6f74206f706572617481526020017f696f6e616c00000000000000000000000000000000000000000000000000000081525060400191505060405180910390fd5b600660008373ffffffffffffffffffffffffffffffffffffffff1673ffffffffffffffffffffffffffffffffffffffff1681526020019081526020016000206003016000815481101515611b5157fe5b906000526020600020018054600181600116156101000203166002900480601f016020809104026020016040519081016040528092919081815260200182805460018160011615610100020316600290048015611bef5780601f10611bc457610100808354040283529160200191611bef565b820191906000526020600020905b815481529060010190602001808311611bd257829003601f168201915b50505050509050919050565b606080606060008060009054906101000a900460ff161515611cab576040517f08c379a00000000000000000000000000000000000000000000000000000000081526004018080602001828103825260258152602001807f436f6e74726163742069732063757272656e746c79206e6f74206f706572617481526020017f696f6e616c00000000000000000000000000000000000000000000000000000081525060400191505060405180910390fd5b611cc085600354612c8f90919063ffffffff16565b506005604051908082528060200260200182016040528015611cf657816020015b6060815260200190600190039081611ce15790505b5093506005604051908082528060200260200182016040528015611d295781602001602082028038833980820191505090505b5092506005604051908082528060200260200182016040528015611d5c5781602001602082028038833980820191505090505b50915060011515600660008873ffffffffffffffffffffffffffffffffffffffff1673ffffffffffffffffffffffffffffffffffffffff16815260200190815260200160002060000160009054906101000a900460ff1615151415611fdd57611dc586896113c2565b9050600081141515611e65576040517f08c379a00000000000000000000000000000000000000000000000000000000081526004018080602001828103825260298152602001807f50617373656e67657220616c726561647920696e737572656420666f7220746881526020017f697320666c69676874000000000000000000000000000000000000000000000081525060400191505060405180910390fd5b600660008773ffffffffffffffffffffffffffffffffffffffff1673ffffffffffffffffffffffffffffffffffffffff1681526020019081526020016000206001016000908060018154018082558091505090600182039060005260206000209060209182820401919006909192909190916101000a81548160ff02191690831515021790555050600660008773ffffffffffffffffffffffffffffffffffffffff1673ffffffffffffffffffffffffffffffffffffffff168152602001908152602001600020600201859080600181540180825580915050906001820390600052602060002001600090919290919091505550600660008773ffffffffffffffffffffffffffffffffffffffff1673ffffffffffffffffffffffffffffffffffffffff168152602001908152602001600020600301889080600181540180825580915050906001820390600052602060002001600090919290919091509080519060200190611fd6929190612db8565b505061211c565b6000836000815181101515611fee57fe5b90602001906020020190151590811515815250508482600081518110151561201257fe5b90602001906020020181815250508784600081518110151561203057fe5b9060200190602002018190525060806040519081016040528060011515815260200184815260200183815260200185815250600660008873ffffffffffffffffffffffffffffffffffffffff1673ffffffffffffffffffffffffffffffffffffffff16815260200190815260200160002060008201518160000160006101000a81548160ff02191690831515021790555060208201518160010190805190602001906120dd929190612e38565b5060408201518160020190805190602001906120fa929190612ede565b506060820151816003019080519060200190612117929190612f2b565b509050505b6007886040518082805190602001908083835b602083101515612154578051825260208201915060208101905060208303925061212f565b6001836020036101000a03801982511681845116808217855250505050505090500191505090815260200160405180910390208690806001815401808255809150509060018203906000526020600020016000909192909190916101000a81548173ffffffffffffffffffffffffffffffffffffffff021916908373ffffffffffffffffffffffffffffffffffffffff160217905550506122698560088a6040518082805190602001908083835b6020831015156122275780518252602082019150602081019050602083039250612202565b6001836020036101000a038019825116818451168082178552505050505050905001915050908152602001604051809103902054612c8f90919063ffffffff16565b6008896040518082805190602001908083835b6020831015156122a1578051825260208201915060208101905060208303925061227c565b6001836020036101000a0380198251168184511680821785525050505050509050019150509081526020016040518091039020819055505050505050505050565b60008060009054906101000a900460ff16151561238d576040517f08c379a00000000000000000000000000000000000000000000000000000000081526004018080602001828103825260258152602001807f436f6e74726163742069732063757272656e746c79206e6f74206f706572617481526020017f696f6e616c00000000000000000000000000000000000000000000000000000081525060400191505060405180910390fd5b600580549050905080905090565b6000600460008373ffffffffffffffffffffffffffffffffffffffff1673ffffffffffffffffffffffffffffffffffffffff16815260200190815260200160002060000160009054906101000a900460ff169050919050565b60008060009054906101000a900460ff16151561249f576040517f08c379a00000000000000000000000000000000000000000000000000000000081526004018080602001828103825260258152602001807f436f6e74726163742069732063757272656e746c79206e6f74206f706572617481526020017f696f6e616c00000000000000000000000000000000000000000000000000000081525060400191505060405180910390fd5b8160011515600460008373ffffffffffffffffffffffffffffffffffffffff1673ffffffffffffffffffffffffffffffffffffffff16815260200190815260200160002060000160009054906101000a900460ff161515141515612591576040517f08c379a00000000000000000000000000000000000000000000000000000000081526004018080602001828103825260228152602001807f43616c6c6572206973206e6f7420612072656769737465726564206169726c6981526020017f6e6500000000000000000000000000000000000000000000000000000000000081525060400191505060405180910390fd5b8260011515600460008373ffffffffffffffffffffffffffffffffffffffff1673ffffffffffffffffffffffffffffffffffffffff16815260200190815260200160002060000160019054906101000a900460ff16151514151561265d576040517f08c379a000000000000000000000000000000000000000000000000000000000815260040180806020018281038252601e8152602001807f43616c6c6572206973206e6f7420612066756e646564206169726c696e65000081525060200191505060405180910390fd5b600460008673ffffffffffffffffffffffffffffffffffffffff1673ffffffffffffffffffffffffffffffffffffffff16815260200190815260200160002060000160009054906101000a900460ff16151515612722576040517f08c379a000000000000000000000000000000000000000000000000000000000815260040180806020018281038252601e8152602001807f4169726c696e6520697320616c726561647920726567697374657265642e000081525060200191505060405180910390fd5b6060604051908101604052806001151581526020016000151581526020018673ffffffffffffffffffffffffffffffffffffffff16815250600460008773ffffffffffffffffffffffffffffffffffffffff1673ffffffffffffffffffffffffffffffffffffffff16815260200190815260200160002060008201518160000160006101000a81548160ff02191690831515021790555060208201518160000160016101000a81548160ff02191690831515021790555060408201518160000160026101000a81548173ffffffffffffffffffffffffffffffffffffffff021916908373ffffffffffffffffffffffffffffffffffffffff16021790555090505060019250829250505092915050565b60008060009054906101000a900460ff1615156128dd576040517f08c379a00000000000000000000000000000000000000000000000000000000081526004018080602001828103825260258152602001807f436f6e74726163742069732063757272656e746c79206e6f74206f706572617481526020017f696f6e616c00000000000000000000000000000000000000000000000000000081525060400191505060405180910390fd5b6008838360405180838380828437820191505092505050908152602001604051809103902054905092915050565b60008060009054906101000a900460ff16905090565b60046020528060005260406000206000915090508060000160009054906101000a900460ff16908060000160019054906101000a900460ff16908060000160029054906101000a900473ffffffffffffffffffffffffffffffffffffffff16905083565b60008060009054906101000a900460ff161515612a30576040517f08c379a00000000000000000000000000000000000000000000000000000000081526004018080602001828103825260258152602001807f436f6e74726163742069732063757272656e746c79206e6f74206f706572617481526020017f696f6e616c00000000000000000000000000000000000000000000000000000081525060400191505060405180910390fd5b6001905090565b818180600960008473ffffffffffffffffffffffffffffffffffffffff1673ffffffffffffffffffffffffffffffffffffffff1681526020019081526020016000205410151515612af0576040517f08c379a000000000000000000000000000000000000000000000000000000000815260040180806020018281038252601b8152602001807f5769746864726177696e67206d6f7265207468616e206f7765642e000000000081525060200191505060405180910390fd5b6000809054906101000a900460ff161515612b99576040517f08c379a00000000000000000000000000000000000000000000000000000000081526004018080602001828103825260258152602001807f436f6e74726163742069732063757272656e746c79206e6f74206f706572617481526020017f696f6e616c00000000000000000000000000000000000000000000000000000081525060400191505060405180910390fd5b612beb81600960008573ffffffffffffffffffffffffffffffffffffffff1673ffffffffffffffffffffffffffffffffffffffff16815260200190815260200160002054612cf990919063ffffffff16565b508173ffffffffffffffffffffffffffffffffffffffff166108fc829081150290604051600060405180830381858888f19350505050158015612c32573d6000803e3d6000fd5b5050505050565b6000600160008373ffffffffffffffffffffffffffffffffffffffff1673ffffffffffffffffffffffffffffffffffffffff16815260200190815260200160002060009054906101000a900460ff169050919050565b60008183019050828110151515612ca257fe5b80905092915050565b60008183811515612cb857fe5b04905092915050565b600080831415612cd45760009050612cf3565b8183029050818382811515612ce557fe5b04141515612cef57fe5b8090505b92915050565b6000828211151515612d0757fe5b818303905092915050565b82805482825590600052602060002090601f01602090048101928215612da75791602002820160005b83821115612d7857835183826101000a81548160ff0219169083151502179055509260200192600101602081600001049283019260010302612d3b565b8015612da55782816101000a81549060ff0219169055600101602081600001049283019260010302612d78565b505b509050612db49190612f8b565b5090565b828054600181600116156101000203166002900490600052602060002090601f016020900481019282601f10612df957805160ff1916838001178555612e27565b82800160010185558215612e27579182015b82811115612e26578251825591602001919060010190612e0b565b5b509050612e349190612fbb565b5090565b82805482825590600052602060002090601f01602090048101928215612ecd5791602002820160005b83821115612e9e57835183826101000a81548160ff0219169083151502179055509260200192600101602081600001049283019260010302612e61565b8015612ecb5782816101000a81549060ff0219169055600101602081600001049283019260010302612e9e565b505b509050612eda9190612f8b565b5090565b828054828255906000526020600020908101928215612f1a579160200282015b82811115612f19578251825591602001919060010190612efe565b5b509050612f279190612fbb565b5090565b828054828255906000526020600020908101928215612f7a579160200282015b82811115612f79578251829080519060200190612f69929190612fe0565b5091602001919060010190612f4b565b5b509050612f879190613060565b5090565b612fb891905b80821115612fb457600081816101000a81549060ff021916905550600101612f91565b5090565b90565b612fdd91905b80821115612fd9576000816000905550600101612fc1565b5090565b90565b828054600181600116156101000203166002900490600052602060002090601f016020900481019282601f1061302157805160ff191683800117855561304f565b8280016001018555821561304f579182015b8281111561304e578251825591602001919060010190613033565b5b50905061305c9190612fbb565b5090565b61308991905b80821115613085576000818161307c919061308c565b50600101613066565b5090565b90565b50805460018160011615610100020316600290046000825580601f106130b257506130d1565b601f0160209004906000526020600020908101906130d09190612fbb565b5b505600a165627a7a72305820a227c197e9d38a478af1ef55dc3467ef37dd3aac24d89ce8c64aebe449401b900029",
  "source": "pragma solidity >=0.4.24;\n\nimport \"../node_modules/openzeppelin-solidity/contracts/math/SafeMath.sol\";\n\ncontract FlightSuretyData {\n    using SafeMath for uint256;\n\n    /********************************************************************************************/\n    /*                                       DATA VARIABLES                                     */\n    /********************************************************************************************/\n\n    //Operation variables\n    bool private operational = true;            // Blocks all state changes throughout the contract if false\n    \n    mapping(address => bool) AuthorizedCallers;\n\n    address private contractOwner;                                      // Account used to deploy contract\n    uint256 private contractBalance = 10;  //10 because first airline is registered and funded when contract is deployed\n\n    struct Airline {   //Airline Struct\n        bool isRegistered;\n        bool isFunded;\n        address airlineAddress;\n    }\n    mapping(address => Airline) public RegisteredAirlines; //Registered airlines mapping\n    address[] private registered; //Array of airline addresses\n\n\n    struct Passenger {   //Passenger Struct\n        bool isInsured;\n        bool[] isPaid;\n        uint256[] insurancePaid;\n        string[] flights;\n    }\n    mapping(address => Passenger) private InsuredPassengers; //Passenger mapping\n\n    //Flight to passenger mapping\n    mapping(string => address[]) private FlightPassengers;\n\n    //Flight to totalInsured Amount mapping e.g. UA047 => 5 ETH\n    mapping(string => uint256) private FlightInsuredAmount;\n\n    //Passenger address to insurance payment. Stores Insurance payouts for passengers\n    mapping(address => uint256) private InsurancePayment;\n\n    /********************************************************************************************/\n    /*                                       EVENT DEFINITIONS                                  */\n    /********************************************************************************************/\n\n\n    /**\n    * @dev Constructor\n    *      The deploying account becomes contractOwner\n    */\n    constructor(address _airline) public \n    {\n        contractOwner = msg.sender;\n        //Add first airline when contract is deployed with funds\n        //RegisteredAirlines[_airline] = Airline({isRegistered: true, isFunded: true, fundBalance: 10, airlineAddress: _airline});\n        registerFirstAirline(_airline);        \n    }\n\n    /********************************************************************************************/\n    /*                                       FUNCTION MODIFIERS                                 */\n    /********************************************************************************************/\n\n    // Modifiers help avoid duplication of code. They are typically used to validate something\n    // before a function is allowed to be executed.\n\n    /**\n    * @dev Modifier that requires the \"operational\" boolean variable to be \"true\"\n    *      This is used on all state changing functions to pause the contract in \n    *      the event there is an issue that needs to be fixed\n    */\n    modifier requireIsOperational() \n    {\n        require(operational, \"Contract is currently not operational\");\n        _;  // All modifiers require an \"_\" which indicates where the function body will be added\n    }\n\n    /**\n    * @dev Modifier that requires the \"ContractOwner\" account to be the function caller\n    */\n    modifier requireContractOwner()\n    {\n        require(msg.sender == contractOwner, \"Caller is not contract owner\");\n        _;\n    }\n\n    /**\n    * @dev Modifier that requires the \"ContractOwner\" account to be the function caller\n    */\n    modifier requireAuthorizedCaller()\n    {\n        require(AuthorizedCallers[msg.sender] == true, \"Caller is not authorized\");\n        _;\n    }\n\n    /**\n    * @dev Modifier that requires the caller is a registered airline\n    */\n    modifier requireRegisteredAirline(address _airline)\n    {\n        require(RegisteredAirlines[_airline].isRegistered == true, \"Caller is not a registered airline\");\n        _;\n    }\n\n    /**\n    * @dev Modifier that requires the caller is a funded airline\n    */\n    modifier requireFundedAirline(address _airline)\n    {\n        require(RegisteredAirlines[_airline].isFunded == true, \"Caller is not a funded airline\");\n        _;\n    }\n\n     /**\n    * @dev Modifier that requires the caller withdraw less than or equal to owed\n    */\n    modifier checkAmount(address passenger, uint amount) {\n        require(InsurancePayment[passenger] >= amount, \"Withdrawing more than owed.\");\n        _;\n        InsurancePayment[passenger].sub(amount);\n        passenger.transfer(amount);\n    }\n\n    /********************************************************************************************/\n    /*                                       UTILITY FUNCTIONS                                  */\n    /********************************************************************************************/\n\n    /**\n    * @dev Get operating status of contract\n    *\n    * @return A bool that is the current operating status\n    */      \n    function isOperational() public view returns(bool) \n    {\n        return operational;\n    }\n\n    /**\n    * @dev Authorize the calling contract\n    */      \n    function authorizeCaller(address _caller) public requireContractOwner\n    {\n        AuthorizedCallers[_caller] = true;\n    }\n\n    //Check if caller is authorized\n    function isAuthorized(address _caller) public view returns(bool) \n    {\n        return AuthorizedCallers[_caller];\n    }\n\n    //De-authorizes a caller\n    function deAuthorizeCaller(address _caller) public requireContractOwner\n    {\n        AuthorizedCallers[_caller] = false;\n    }\n\n    /**\n    * @dev check if airline is registered\n    *\n    * @return A bool \n    */      \n    function isRegistered(address airline) public view returns(bool) \n    {\n        return RegisteredAirlines[airline].isRegistered;\n    }\n\n    /**\n    * @dev check if airline is funded\n    *\n    * @return A bool \n    */      \n    function isFunded(address airline) public view returns(bool) \n    {\n        return RegisteredAirlines[airline].isFunded;\n    }\n\n    /**\n    * @dev check if passenger is insured\n    *\n    * @return A bool \n    */      \n    function isInsured(address passenger, string memory flight) public view returns(bool success) \n    {\n        //success = false;\n        uint index = getFlightIndex(passenger, flight);\n        if(index > 0) \n        {\n            success = true;\n        }else {\n            success = false;\n        }\n        return success;\n    }\n\n    /**\n    * @dev Sets contract operations on/off\n    *\n    * When operational mode is disabled, all write transactions except for this one will fail\n    */    \n    function setOperatingStatus\n        (\n            bool mode\n        ) \n        external\n    {\n        operational = mode;\n       \n    }\n\n\n    /********************************************************************************************/\n    /*                                     SMART CONTRACT FUNCTIONS                             */\n    /********************************************************************************************/\n    function registerFirstAirline (address _airline) internal requireIsOperational\n    {\n        require(msg.sender == contractOwner, \"Unauthorized to use this function\");\n        RegisteredAirlines[_airline] = Airline({isRegistered: true, isFunded: true, airlineAddress: _airline});\n        registered.push(_airline);\n    }\n   /**\n    * @dev Add an airline to the registration queue\n    *      Can only be called from FlightSuretyApp contract\n    *\n    */   \n    function registerAirline\n        (\n            address _airline,\n            address caller\n        ) \n        external \n        requireIsOperational\n        requireRegisteredAirline(caller) //Check if caller is a registered airline\n        requireFundedAirline(caller) //Check if caller is a funded airline\n        returns\n        (\n            bool success\n        )\n    {\n        //Check if airline is already registered\n        require(!RegisteredAirlines[_airline].isRegistered, \"Airline is already registered.\");\n\n        RegisteredAirlines[_airline] = Airline({isRegistered: true, isFunded: false, airlineAddress: _airline});\n        success = true;\n        \n        return (success);\n    }\n    \n    /**\n    * @dev Get Number of airlines registered\n    *\n    */   \n    function _getRegisteredAirlinesNum() \n        external \n        view\n        requireIsOperational\n        returns\n        (\n            uint256 number\n        )\n    {\n        //Get the number of airlines registered\n        number = registered.length;\n        return number;\n    }\n\n    /**\n    * @dev Buy insurance for a flight\n    *\n    */   \n    function buy\n        (         \n            string memory flight,\n            uint256 time,\n            address passenger,\n            uint256 amount                    \n        )\n        public\n        payable\n        requireIsOperational\n    {\n        //Check if flight time is less than current time. Flight already departed\n        //require(time > now, \"Passengers cannot purchase insurance on departed or landed flights\");\n        //contractOwner.transfer(amount);\n        contractBalance.add(amount);\n        string[] memory _flights = new string[](5);\n        bool[] memory paid = new bool[](5);\n        uint256[] memory insurance = new uint[](5);\n        uint index;\n        \n        //If passenger already insured before\n       if(InsuredPassengers[passenger].isInsured == true){\n            //check if passenger is trying to re-insure same flight\n            index = getFlightIndex(passenger, flight) ;\n            require(index == 0, \"Passenger already insured for this flight\");\n\n            //Add new flight insurance info\n            InsuredPassengers[passenger].isPaid.push(false);\n            InsuredPassengers[passenger].insurancePaid.push(amount);\n            InsuredPassengers[passenger].flights.push(flight);\n           \n        }else { \n             paid[0] = false; //set isPaid to false\n            insurance[0] = amount; //Set insurance premium amount\n            _flights[0] = flight; //Set flight \n            InsuredPassengers[passenger] = Passenger({isInsured: true, isPaid: paid, insurancePaid: insurance, flights: _flights}); \n         }\n\n        FlightPassengers[flight].push(passenger);\n        FlightInsuredAmount[flight] = FlightInsuredAmount[flight].add(amount);  \n    \n    }\n\n    /**\n     *  @dev Credits payouts to insurees\n    */\n    function creditInsurees\n        (\n            string  flight\n        )\n        external\n        requireIsOperational\n    {\n        require(FlightInsuredAmount[flight] <= contractBalance, \"Not enough balance to pay insurees\");\n\n        address[] memory passengers = FlightPassengers[flight];\n        bool[] memory paid;\n        uint[] memory insurance;\n        uint index;\n\n        for(uint i = 0; i < passengers.length; i++){\n            //code to pay passengers\n            paid = InsuredPassengers[passengers[i]].isPaid;\n            insurance = InsuredPassengers[passengers[i]].insurancePaid;\n            index = getFlightIndex(passengers[i], flight);\n            paid[index] = true;\n            InsuredPassengers[passengers[i]].isPaid = paid;\n            uint a = 15;\n            uint b = 10;\n            uint amount = insurance[index].mul(a.div(b));\n            InsurancePayment[passengers[i]].add(amount);\n        }\n    }\n\n     /**\n     *  @dev Get Index array of Flight\n     *\n    */\n    function getFlightIndex(address pass, string memory flight) public view returns(uint index)\n    {\n        //uint num = InsuredPassengers[pass].flights.length;\n        string[] memory flights = new string[](5);\n        flights = InsuredPassengers[pass].flights;\n        \n        for(uint i = 0; i < flights.length; i++){\n            if(uint(keccak256(abi.encodePacked(flights[i]))) == uint(keccak256(abi.encodePacked(flight)))) {\n               return(i + 1);\n           }\n        }\n\n        return(0);\n    }\n\n    /**\n     *  @dev Transfers eligible payout funds to insuree\n     *\n    */\n    function withdraw(address payee, uint amount) external payable checkAmount(payee, amount) requireIsOperational\n    {\n    }\n\n   /**\n    * @dev Initial funding for the insurance. Unless there are too many delayed flights\n    *      resulting in insurance payouts, the contract should be self-sustaining\n    *\n    */   \n    function fund\n        (   \n            uint256 fundAmt,\n            address _airline\n        )\n        public\n        payable\n        requireIsOperational\n        requireRegisteredAirline(_airline)\n    {\n        require(isFunded(_airline) == false, \"Airline is already funded\");\n        RegisteredAirlines[_airline].isFunded = true;\n        //contractOwner.transfer(fundAmt);\n        contractBalance.add(fundAmt);\n        registered.push(_airline);\n    }\n\n    function getFlightKey\n        (\n            address airline,\n            string memory flight,\n            uint256 timestamp\n        )\n        pure\n        internal\n        returns(bytes32) \n    {\n        return keccak256(abi.encodePacked(airline, flight, timestamp));\n    }\n\n    function getFlightsInsured\n        (\n        address passenger,\n        string flight\n        )\n        external \n        view\n        requireIsOperational\n        returns\n        (\n            uint amount\n        )\n    {\n        amount = 0;\n        for(uint i = 0; i < InsuredPassengers[passenger].flights.length; i++){\n            if(keccak256(abi.encodePacked(InsuredPassengers[passenger].flights[i])) == keccak256(abi.encodePacked(flight))){\n                amount = InsuredPassengers[passenger].insurancePaid[i];\n                break;\n            }\n        }\n        \n    }\n\n    function getFlightAmountInsured\n        (\n            string flight\n        )\n        external \n        view \n        requireIsOperational \n        returns\n        (\n            uint amount\n        )\n    {\n        amount = FlightInsuredAmount[flight];\n    }\n\n    function testFunction() public view requireIsOperational returns(bool success)\n    {\n        success = true;\n    }\n\n    function testFunction2(address passen) public view requireIsOperational returns(string memory flights)\n    {\n       //success = InsuredPassengers[passen].isInsured;\n        //pass = InsuredPassengers[passen];\n        flights = InsuredPassengers[passen].flights[0];\n    }\n\n    \n    /**\n    * @dev Fallback function for funding smart contract.\n    *\n    */\n    function() \n        external \n        payable \n    {\n        fund(msg.value, address(0));\n    }\n\n\n}\n\n",
  "sourcePath": "/mnt/c/Users/avant/Desktop/flightsurety/contracts/FlightSuretyData.sol",
  "compiler": {
    "name": "solc",
    "version": "0.4.24+commit.e67f0147.Emscripten.clang"
  },
  "schemaVersion": "2.0.1",
  "updatedAt": "2019-03-15T19:42:00.637Z"
}